:100000000010002015000000990000009900000079
:100010009900000080B586B000AF1A4A1A4BD31A77
:100020007B601A4A1A4BD31A3B601A4B7B61164B02
:100030003B610023FB600AE07A69531C7B613B69EA
:10004000591C396112781A70FB680133FB60FB6838
:100050007A689A42F0D80E4B3B610023BB6007E000
:100060003B695A1C3A6100221A70BB680133BB60BD
:10007000BB683A689A42F3D800F014F800BF18370A
:10008000BD4680BD000000200000002000040020CC
:10009000000000203001000080B500AFFFF7BAFF7C
:1000A00000BF80BD80B483B000AF1C4B20221A601B
:1000B00000237B6002E07B6801337B607B68C72B99
:1000C000F9D9174B1B68164A43F008031360154B08
:1000D0001B68144A43F008031360134B1B68124A51
:1000E00043F00803136000237B6002E07B68013368
:1000F0007B607B680D4A9342F8D90B4B1B680A4A18
:1001000023F00803136000237B6002E07B68013367
:100110007B607B68054A9342F8D9DEE708E10F402F
:10012000005402401C550240FC5302403F0D0300A6
:00000001FF
