:020000040800F2
:100000006C100020150000089900000899000008F5
:100010009900000880B586B000AF1A4A1A4BD31A6F
:100020007B601A4A1A4BD31A3B601A4B7B61164B02
:100030003B610023FB600AE07A69531C7B613B69EA
:10004000591C396112781A70FB680133FB60FB6838
:100050007A689A42F0D80E4B3B610023BB6007E000
:100060003B695A1C3A6100221A70BB680133BB60BD
:10007000BB683A689A42F3D800F014F800BF18370A
:10008000BD4680BD08000020000000206C0000205C
:10009000080000202001000880B500AFFFF7BAFF7C
:1000A00000BF80BD80B483B000AF1A4B1B68194AF3
:1000B00043F004031360184B1B68174A23F47003C2
:1000C0001360154B1B68144A43F400131360134B61
:1000D0001A68138843F40053138000237B6002E006
:1000E0007B6801337B607B6841F287329342F7DDA6
:1000F0000A4B1A6813886FF34D33138000237B601B
:1001000002E07B6801337B607B6841F28732934277
:10011000F7DDDCE718100240040801400000002071
:080120000C0801400102030478
:00000001FF
